{
  "contractName": "BrightID",
  "abi": [
    {
      "inputs": [],
      "payable": false,
      "stateMutability": "nonpayable",
      "type": "constructor"
    },
    {
      "anonymous": false,
      "inputs": [
        {
          "indexed": false,
          "name": "userAddress",
          "type": "address"
        },
        {
          "indexed": false,
          "name": "contextName",
          "type": "bytes32"
        },
        {
          "indexed": false,
          "name": "score",
          "type": "uint32"
        },
        {
          "indexed": false,
          "name": "timestamp",
          "type": "uint32"
        }
      ],
      "name": "LogSetScore",
      "type": "event"
    },
    {
      "anonymous": false,
      "inputs": [
        {
          "indexed": false,
          "name": "nodeAddress",
          "type": "address"
        }
      ],
      "name": "LogAddNode",
      "type": "event"
    },
    {
      "anonymous": false,
      "inputs": [
        {
          "indexed": false,
          "name": "nodeAddress",
          "type": "address"
        }
      ],
      "name": "LogRemoveNode",
      "type": "event"
    },
    {
      "anonymous": false,
      "inputs": [
        {
          "indexed": false,
          "name": "contextName",
          "type": "bytes32"
        }
      ],
      "name": "LogAddContext",
      "type": "event"
    },
    {
      "anonymous": false,
      "inputs": [
        {
          "indexed": false,
          "name": "contextName",
          "type": "bytes32"
        }
      ],
      "name": "LogRemoveContext",
      "type": "event"
    },
    {
      "anonymous": false,
      "inputs": [
        {
          "indexed": false,
          "name": "contextName",
          "type": "bytes32"
        },
        {
          "indexed": false,
          "name": "nodeAddress",
          "type": "address"
        }
      ],
      "name": "LogAddNodeToContext",
      "type": "event"
    },
    {
      "anonymous": false,
      "inputs": [
        {
          "indexed": false,
          "name": "contextName",
          "type": "bytes32"
        },
        {
          "indexed": false,
          "name": "nodeAddress",
          "type": "address"
        }
      ],
      "name": "LogRemoveNodeFromContext",
      "type": "event"
    },
    {
      "constant": true,
      "inputs": [
        {
          "name": "userAddress",
          "type": "address"
        }
      ],
      "name": "isUser",
      "outputs": [
        {
          "name": "ret",
          "type": "bool"
        }
      ],
      "payable": false,
      "stateMutability": "view",
      "type": "function"
    },
    {
      "constant": true,
      "inputs": [
        {
          "name": "nodeAddress",
          "type": "address"
        }
      ],
      "name": "isNode",
      "outputs": [
        {
          "name": "ret",
          "type": "bool"
        }
      ],
      "payable": false,
      "stateMutability": "view",
      "type": "function"
    },
    {
      "constant": true,
      "inputs": [
        {
          "name": "contextName",
          "type": "bytes32"
        }
      ],
      "name": "isContext",
      "outputs": [
        {
          "name": "ret",
          "type": "bool"
        }
      ],
      "payable": false,
      "stateMutability": "view",
      "type": "function"
    },
    {
      "constant": true,
      "inputs": [
        {
          "name": "contextName",
          "type": "bytes32"
        },
        {
          "name": "nodeAddress",
          "type": "address"
        }
      ],
      "name": "isNodeInContext",
      "outputs": [
        {
          "name": "ret",
          "type": "bool"
        }
      ],
      "payable": false,
      "stateMutability": "view",
      "type": "function"
    },
    {
      "constant": false,
      "inputs": [
        {
          "name": "userAddress",
          "type": "address"
        },
        {
          "name": "contextName",
          "type": "bytes32"
        },
        {
          "name": "score",
          "type": "uint32"
        },
        {
          "name": "timestamp",
          "type": "uint32"
        },
        {
          "name": "r",
          "type": "bytes32"
        },
        {
          "name": "s",
          "type": "bytes32"
        },
        {
          "name": "v",
          "type": "uint8"
        }
      ],
      "name": "setScore",
      "outputs": [],
      "payable": false,
      "stateMutability": "nonpayable",
      "type": "function"
    },
    {
      "constant": true,
      "inputs": [
        {
          "name": "userAddress",
          "type": "address"
        },
        {
          "name": "contextName",
          "type": "bytes32"
        }
      ],
      "name": "getScore",
      "outputs": [
        {
          "name": "",
          "type": "uint32"
        },
        {
          "name": "",
          "type": "uint32"
        }
      ],
      "payable": false,
      "stateMutability": "view",
      "type": "function"
    },
    {
      "constant": false,
      "inputs": [
        {
          "name": "nodeAddress",
          "type": "address"
        }
      ],
      "name": "addNode",
      "outputs": [],
      "payable": false,
      "stateMutability": "nonpayable",
      "type": "function"
    },
    {
      "constant": false,
      "inputs": [
        {
          "name": "nodeAddress",
          "type": "address"
        }
      ],
      "name": "removeNode",
      "outputs": [],
      "payable": false,
      "stateMutability": "nonpayable",
      "type": "function"
    },
    {
      "constant": false,
      "inputs": [
        {
          "name": "contextName",
          "type": "bytes32"
        }
      ],
      "name": "addContext",
      "outputs": [],
      "payable": false,
      "stateMutability": "nonpayable",
      "type": "function"
    },
    {
      "constant": false,
      "inputs": [
        {
          "name": "contextName",
          "type": "bytes32"
        }
      ],
      "name": "removeContext",
      "outputs": [],
      "payable": false,
      "stateMutability": "nonpayable",
      "type": "function"
    },
    {
      "constant": false,
      "inputs": [
        {
          "name": "contextName",
          "type": "bytes32"
        },
        {
          "name": "nodeAddress",
          "type": "address"
        }
      ],
      "name": "addNodeToContext",
      "outputs": [],
      "payable": false,
      "stateMutability": "nonpayable",
      "type": "function"
    },
    {
      "constant": false,
      "inputs": [
        {
          "name": "contextName",
          "type": "bytes32"
        },
        {
          "name": "nodeAddress",
          "type": "address"
        }
      ],
      "name": "removeNodeFromContext",
      "outputs": [],
      "payable": false,
      "stateMutability": "nonpayable",
      "type": "function"
    }
  ],
  "bytecode": "0x608060405234801561001057600080fd5b50600033905061004e7f417261676f6e0000000000000000000000000000000000000000000000000000610054640100000000026401000000009004565b5061012a565b600160026000836000191660001916815260200190815260200160002060000160006101000a81548160ff0219169083151502179055503360026000836000191660001916815260200190815260200160002060000160016101000a81548173ffffffffffffffffffffffffffffffffffffffff021916908373ffffffffffffffffffffffffffffffffffffffff1602179055507fde7f0f1fa2b0fc6f92c9579b90d248555d0d352aa67944c837f08cea61f5494d8160405180826000191660001916815260200191505060405180910390a150565b61137d806101396000396000f3006080604052600436106100ba576000357c0100000000000000000000000000000000000000000000000000000000900463ffffffff168063010d1adc146100bf57806301750152146101105780634209fff11461016b57806366be820d146101c65780636f135f131461021757806388283697146102485780638fa71f0b146102915780639d95f1cc14610315578063ab8ee8c114610358578063b2b99ec9146103c1578063bdb53d3014610404578063f755065e14610435575b600080fd5b3480156100cb57600080fd5b5061010e6004803603810190808035600019169060200190929190803573ffffffffffffffffffffffffffffffffffffffff1690602001909291905050506104cf565b005b34801561011c57600080fd5b50610151600480360381019080803573ffffffffffffffffffffffffffffffffffffffff1690602001909291905050506106bf565b604051808215151515815260200191505060405180910390f35b34801561017757600080fd5b506101ac600480360381019080803573ffffffffffffffffffffffffffffffffffffffff169060200190929190505050610718565b604051808215151515815260200191505060405180910390f35b3480156101d257600080fd5b506102156004803603810190808035600019169060200190929190803573ffffffffffffffffffffffffffffffffffffffff169060200190929190505050610770565b005b34801561022357600080fd5b5061024660048036038101908080356000191690602001909291905050506108fb565b005b34801561025457600080fd5b5061027760048036038101908080356000191690602001909291905050506109ec565b604051808215151515815260200191505060405180910390f35b34801561029d57600080fd5b506102e0600480360381019080803573ffffffffffffffffffffffffffffffffffffffff1690602001909291908035600019169060200190929190505050610a21565b604051808363ffffffff1663ffffffff1681526020018263ffffffff1663ffffffff1681526020019250505060405180910390f35b34801561032157600080fd5b50610356600480360381019080803573ffffffffffffffffffffffffffffffffffffffff169060200190929190505050610ba2565b005b34801561036457600080fd5b506103a76004803603810190808035600019169060200190929190803573ffffffffffffffffffffffffffffffffffffffff169060200190929190505050610c8c565b604051808215151515815260200191505060405180910390f35b3480156103cd57600080fd5b50610402600480360381019080803573ffffffffffffffffffffffffffffffffffffffff169060200190929190505050610cff565b005b34801561041057600080fd5b506104336004803603810190808035600019169060200190929190505050610dfa565b005b34801561044157600080fd5b506104cd600480360381019080803573ffffffffffffffffffffffffffffffffffffffff1690602001909291908035600019169060200190929190803563ffffffff169060200190929190803563ffffffff16906020019092919080356000191690602001909291908035600019169060200190929190803560ff169060200190929190505050610ed0565b005b6104d8826109ec565b15156104e357600080fd5b3373ffffffffffffffffffffffffffffffffffffffff1660026000846000191660001916815260200190815260200160002060000160019054906101000a900473ffffffffffffffffffffffffffffffffffffffff1673ffffffffffffffffffffffffffffffffffffffff1614151561055b57600080fd5b600160026000846000191660001916815260200190815260200160002060010160008373ffffffffffffffffffffffffffffffffffffffff1673ffffffffffffffffffffffffffffffffffffffff16815260200190815260200160002060006101000a81548160ff02191690831515021790551561064857600060026000846000191660001916815260200190815260200160002060010160008373ffffffffffffffffffffffffffffffffffffffff1673ffffffffffffffffffffffffffffffffffffffff16815260200190815260200160002060006101000a81548160ff0219169083151502179055505b7f66c41a0de9444aec7c5c441e00b37cbe348df8384e68ba893fd563e6fae0c7db82826040518083600019166000191681526020018273ffffffffffffffffffffffffffffffffffffffff1673ffffffffffffffffffffffffffffffffffffffff1681526020019250505060405180910390a15050565b6000600160008373ffffffffffffffffffffffffffffffffffffffff1673ffffffffffffffffffffffffffffffffffffffff16815260200190815260200160002060000160009054906101000a900460ff169050919050565b60008060008373ffffffffffffffffffffffffffffffffffffffff1673ffffffffffffffffffffffffffffffffffffffff16815260200190815260200160002060000160009054906101000a900460ff169050919050565b610779816106bf565b151561078457600080fd5b61078d826109ec565b151561079857600080fd5b3373ffffffffffffffffffffffffffffffffffffffff1660026000846000191660001916815260200190815260200160002060000160019054906101000a900473ffffffffffffffffffffffffffffffffffffffff1673ffffffffffffffffffffffffffffffffffffffff1614151561081057600080fd5b600160026000846000191660001916815260200190815260200160002060010160008373ffffffffffffffffffffffffffffffffffffffff1673ffffffffffffffffffffffffffffffffffffffff16815260200190815260200160002060006101000a81548160ff0219169083151502179055507fa3d0c32343b08e48fc1eb76ed7fc7a1401ceedd2e10762d0efd162a8f35e7b3b82826040518083600019166000191681526020018273ffffffffffffffffffffffffffffffffffffffff1673ffffffffffffffffffffffffffffffffffffffff1681526020019250505060405180910390a15050565b60026000826000191660001916815260200190815260200160002060000160019054906101000a900473ffffffffffffffffffffffffffffffffffffffff1673ffffffffffffffffffffffffffffffffffffffff163373ffffffffffffffffffffffffffffffffffffffff1614151561097357600080fd5b600060026000836000191660001916815260200190815260200160002060000160006101000a81548160ff0219169083151502179055507f482ae6d6e34003ced0a033d47a81e4bf9c88face52cfe0b1448ffe0813b354278160405180826000191660001916815260200191505060405180910390a150565b600060026000836000191660001916815260200190815260200160002060000160009054906101000a900460ff169050919050565b600080610a2d84610718565b1515610a3857600080fd5b60008060008673ffffffffffffffffffffffffffffffffffffffff1673ffffffffffffffffffffffffffffffffffffffff1681526020019081526020016000206001016000856000191660001916815260200190815260200160002060000160049054906101000a900463ffffffff1663ffffffff1614151515610abb57600080fd5b6000808573ffffffffffffffffffffffffffffffffffffffff1673ffffffffffffffffffffffffffffffffffffffff1681526020019081526020016000206001016000846000191660001916815260200190815260200160002060000160009054906101000a900463ffffffff166000808673ffffffffffffffffffffffffffffffffffffffff1673ffffffffffffffffffffffffffffffffffffffff1681526020019081526020016000206001016000856000191660001916815260200190815260200160002060000160049054906101000a900463ffffffff16915091509250929050565b60018060008373ffffffffffffffffffffffffffffffffffffffff1673ffffffffffffffffffffffffffffffffffffffff16815260200190815260200160002060000160006101000a81548160ff0219169083151502179055507f6aef64017689c871f548dc03817fccee55766c436e48062734b857cadb4bf90781604051808273ffffffffffffffffffffffffffffffffffffffff1673ffffffffffffffffffffffffffffffffffffffff16815260200191505060405180910390a1610c897f417261676f6e000000000000000000000000000000000000000000000000000082610770565b50565b600060026000846000191660001916815260200190815260200160002060010160008373ffffffffffffffffffffffffffffffffffffffff1673ffffffffffffffffffffffffffffffffffffffff16815260200190815260200160002060009054906101000a900460ff16905092915050565b8073ffffffffffffffffffffffffffffffffffffffff163373ffffffffffffffffffffffffffffffffffffffff16141515610d3957600080fd5b6000600160008373ffffffffffffffffffffffffffffffffffffffff1673ffffffffffffffffffffffffffffffffffffffff16815260200190815260200160002060000160006101000a81548160ff0219169083151502179055507fc7c860a8ebcbc8a9286de03c0bd048cfeadecb0f93b14d984fd1f52404fdcb0481604051808273ffffffffffffffffffffffffffffffffffffffff1673ffffffffffffffffffffffffffffffffffffffff16815260200191505060405180910390a150565b600160026000836000191660001916815260200190815260200160002060000160006101000a81548160ff0219169083151502179055503360026000836000191660001916815260200190815260200160002060000160016101000a81548173ffffffffffffffffffffffffffffffffffffffff021916908373ffffffffffffffffffffffffffffffffffffffff1602179055507fde7f0f1fa2b0fc6f92c9579b90d248555d0d352aa67944c837f08cea61f5494d8160405180826000191660001916815260200191505060405180910390a150565b6000610ee08484848b8a8a6111e8565b9050610eeb876109ec565b1515610ef657600080fd5b60026000886000191660001916815260200190815260200160002060010160008273ffffffffffffffffffffffffffffffffffffffff1673ffffffffffffffffffffffffffffffffffffffff16815260200190815260200160002060009054906101000a900460ff161515610f6a57600080fd5b8463ffffffff166000808a73ffffffffffffffffffffffffffffffffffffffff1673ffffffffffffffffffffffffffffffffffffffff1681526020019081526020016000206001016000896000191660001916815260200190815260200160002060000160049054906101000a900463ffffffff1663ffffffff16101515610ff157600080fd5b856000808a73ffffffffffffffffffffffffffffffffffffffff1673ffffffffffffffffffffffffffffffffffffffff1681526020019081526020016000206001016000896000191660001916815260200190815260200160002060000160006101000a81548163ffffffff021916908363ffffffff160217905550846000808a73ffffffffffffffffffffffffffffffffffffffff1673ffffffffffffffffffffffffffffffffffffffff1681526020019081526020016000206001016000896000191660001916815260200190815260200160002060000160046101000a81548163ffffffff021916908363ffffffff16021790555060016000808a73ffffffffffffffffffffffffffffffffffffffff1673ffffffffffffffffffffffffffffffffffffffff16815260200190815260200160002060000160006101000a81548160ff0219169083151502179055507f9cfdcfa52a107c99fba77d9dcb9f6288554750a584e8eee4ed90156567a95eda88888888604051808573ffffffffffffffffffffffffffffffffffffffff1673ffffffffffffffffffffffffffffffffffffffff16815260200184600019166000191681526020018363ffffffff1663ffffffff1681526020018263ffffffff1663ffffffff16815260200194505050505060405180910390a15050505050505050565b600080848484604051602001808473ffffffffffffffffffffffffffffffffffffffff1673ffffffffffffffffffffffffffffffffffffffff1681526020018363ffffffff1663ffffffff1681526020018263ffffffff1663ffffffff16815260200193505050506040516020818303038152906040526040518082805190602001908083835b602083101515611294578051825260208201915060208101905060208303925061126f565b6001836020036101000a03801982511681845116808217855250505050505090500191505060405180910390209050600181878a8a604051600081526020016040526040518085600019166000191681526020018460ff1660ff1681526020018360001916600019168152602001826000191660001916815260200194505050505060206040516020810390808403906000865af115801561133a573d6000803e3d6000fd5b5050506020604051035191505096955050505050505600a165627a7a72305820842cd1ac76bea736488db97ef9bdd683c4044253feaa4b0c80d73cb42d9d0be00029",
  "source": "pragma solidity ^0.4.24;\n\n\ncontract BrightID {\n\n    struct Score {\n        uint32 value;\n        uint32 timestamp;\n    }\n\n    struct User {\n        bool isActive;\n        // TODO: Check if it's a proper approach to use bytes32 as mapping key.\n        mapping (bytes32 => Score) scores;\n    }\n\n    struct Node {\n        bool isActive;\n    }\n\n    struct Context {\n        bool isActive;\n        address owner;\n        mapping (address => bool) nodes;\n    }\n\n    mapping(address => User) private users;\n    mapping(address => Node) private nodes;\n    mapping(bytes32 => Context) private contexts;\n\n    event LogSetScore(address userAddress, bytes32 contextName, uint32 score, uint32 timestamp);\n    event LogAddNode(address nodeAddress);\n    event LogRemoveNode(address nodeAddress);\n    event LogAddContext(bytes32 contextName);\n    event LogRemoveContext(bytes32 contextName);\n    event LogAddNodeToContext(bytes32 contextName, address nodeAddress);\n    event LogRemoveNodeFromContext(bytes32 contextName, address nodeAddress);\n\n    constructor()\n        public {\n            address owner = msg.sender;\n            addContext('Aragon');\n        }\n\n    /**\n     * @dev Check if a user exists.\n     * @param userAddress The user's address.\n     */\n    function isUser(address userAddress)\n        public\n        constant\n        returns(bool ret)\n    {\n        return users[userAddress].isActive;\n    }\n\n    /**\n     * @dev Check if a node exists.\n     * @param nodeAddress The node's address.\n     */\n    function isNode(address nodeAddress)\n        public\n        constant\n        returns(bool ret)\n    {\n        return nodes[nodeAddress].isActive;\n    }\n\n    /**\n     * @dev Check if a context exists.\n     * @param contextName The context's name.\n     */\n    function isContext(bytes32 contextName)\n        public\n        constant\n        returns(bool ret)\n    {\n        return contexts[contextName].isActive;\n    }\n\n    /**\n     * @dev Check each if a node's signature is acceptable for a context.\n     * @param contextName The context's name.\n     * @param nodeAddress The node's address.\n     */\n    function isNodeInContext(bytes32 contextName, address nodeAddress)\n        public\n        constant\n        returns(bool ret)\n    {\n        return contexts[contextName].nodes[nodeAddress];\n    }\n\n    /**\n     * @dev Set score for user.\n     * @param userAddress The user's address.\n     * @param contextName The context's name.\n     * @param score The user's score.\n     * @param timestamp The score's timestamp.\n     * @param r signature's r.\n     * @param s signature's s.\n     * @param v signature's v.\n     */\n    function setScore(\n        address userAddress,\n        bytes32 contextName,\n        uint32 score,\n        uint32 timestamp,\n        bytes32 r,\n        bytes32 s,\n        uint8 v)\n        public\n    {\n        address signerAddress = signer(r, s, v, userAddress, score, timestamp);\n        require(isContext(contextName));\n        require(contexts[contextName].nodes[signerAddress]);\n        require(users[userAddress].scores[contextName].timestamp < timestamp);\n        users[userAddress].scores[contextName].value = score;\n        users[userAddress].scores[contextName].timestamp = timestamp;\n        users[userAddress].isActive = true;\n        emit LogSetScore(userAddress, contextName, score, timestamp);\n    }\n\n    /**\n     * @dev Get user's score.\n     * @param userAddress the user's address.\n     * @param contextName the context's name.\n     */\n    function getScore(\n        address userAddress,\n        bytes32 contextName)\n        public\n        view\n        returns(uint32, uint32)\n    {\n        require(isUser(userAddress));\n        require(users[userAddress].scores[contextName].timestamp != 0);\n        return (users[userAddress].scores[contextName].value, users[userAddress].scores[contextName].timestamp);\n    }\n\n    /**\n     * @dev Add a node.\n     * @param nodeAddress The node's address.\n     */\n    function addNode(address nodeAddress)\n        public\n    {\n        nodes[nodeAddress].isActive = true;\n        emit LogAddNode(nodeAddress);\n        addNodeToContext('Aragon', nodeAddress);\n    }\n\n    /**\n     * @dev Remove a node.\n     * @param nodeAddress The node's address.\n     */\n    function removeNode(address nodeAddress)\n        public\n    {\n        require(msg.sender == nodeAddress);\n        nodes[nodeAddress].isActive = false;\n        emit LogRemoveNode(nodeAddress);\n    }\n\n    /**\n     * @dev Add a context.\n     * @param contextName The context's name.\n     */\n    function addContext(bytes32 contextName)\n        public\n    {\n        contexts[contextName].isActive = true;\n        contexts[contextName].owner = msg.sender;\n        emit LogAddContext(contextName);\n    }\n\n    /**\n     * @dev Remove a context.\n     * @param contextName The context's name.\n     */\n    function removeContext(bytes32 contextName)\n        public\n    {\n        require(msg.sender == contexts[contextName].owner);\n        contexts[contextName].isActive = false;\n        emit LogRemoveContext(contextName);\n    }\n\n    /**\n     * @dev Add a node to a context.\n     * @param contextName The context's name.\n     * @param nodeAddress The node's address.\n     */\n    function addNodeToContext(bytes32 contextName, address nodeAddress)\n        public\n    {\n        require(isNode(nodeAddress));\n        require(isContext(contextName));\n        require(contexts[contextName].owner == msg.sender);\n        contexts[contextName].nodes[nodeAddress] = true;\n        emit LogAddNodeToContext(contextName, nodeAddress);\n    }\n\n    /**\n     * @dev Remove a node from a context.\n     * @param contextName The context's name.\n     * @param nodeAddress The node's address.\n     */\n    function removeNodeFromContext(bytes32 contextName, address nodeAddress)\n        public\n    {\n        require(isContext(contextName));\n        require(contexts[contextName].owner == msg.sender);\n        if (contexts[contextName].nodes[nodeAddress] = true) {\n            contexts[contextName].nodes[nodeAddress] = false;\n        }\n        emit LogRemoveNodeFromContext(contextName, nodeAddress);\n    }\n\n    /**\n     * @dev Find the signer of a signature.\n     * @param r signature's r.\n     * @param s signature's s.\n     * @param v signature's v.\n     * @param userAddress The user address.\n     * @param score The user's score.\n     * @param timestamp The score's timestamp.\n     */\n    function signer(\n        bytes32 r,\n        bytes32 s,\n        uint8 v,\n        address userAddress,\n        uint32 score,\n        uint32 timestamp)\n        internal\n        pure\n        returns(address addr)\n    {\n        bytes32 message = keccak256(abi.encode(userAddress, score, timestamp));\n        return ecrecover(message, v, r, s);\n    }\n}\n",
  "sourcePath": "/home/mohsen/workspace/BrightID-AragonApp/contracts/BrightID.sol",
  "compiler": {
    "name": "solc",
    "version": "0.4.24+commit.e67f0147.Emscripten.clang"
  },
  "schemaVersion": "2.0.1",
  "updatedAt": "2018-11-18T14:37:57.474Z"
}